{
  "_format": "hh-sol-artifact-1",
  "contractName": "LoanManager",
  "sourceName": "contracts/LoanManager.sol",
  "abi": [
    {
      "inputs": [
        {
          "internalType": "contract IERC20",
          "name": "token",
          "type": "address"
        }
      ],
      "stateMutability": "nonpayable",
      "type": "constructor"
    },
    {
      "anonymous": false,
      "inputs": [
        {
          "indexed": true,
          "internalType": "address",
          "name": "previousOwner",
          "type": "address"
        },
        {
          "indexed": true,
          "internalType": "address",
          "name": "newOwner",
          "type": "address"
        }
      ],
      "name": "OwnershipTransferred",
      "type": "event"
    },
    {
      "stateMutability": "payable",
      "type": "fallback"
    },
    {
      "inputs": [
        {
          "internalType": "address",
          "name": "_user",
          "type": "address"
        }
      ],
      "name": "getLoanDetails",
      "outputs": [
        {
          "components": [
            {
              "internalType": "enum LoanStatus",
              "name": "status",
              "type": "uint8"
            },
            {
              "internalType": "uint256",
              "name": "amt",
              "type": "uint256"
            },
            {
              "internalType": "uint256",
              "name": "issued_timestamp",
              "type": "uint256"
            }
          ],
          "internalType": "struct Loan",
          "name": "",
          "type": "tuple"
        }
      ],
      "stateMutability": "view",
      "type": "function"
    },
    {
      "inputs": [],
      "name": "issueLoan",
      "outputs": [
        {
          "components": [
            {
              "internalType": "enum LoanStatus",
              "name": "status",
              "type": "uint8"
            },
            {
              "internalType": "uint256",
              "name": "amt",
              "type": "uint256"
            },
            {
              "internalType": "uint256",
              "name": "issued_timestamp",
              "type": "uint256"
            }
          ],
          "internalType": "struct Loan",
          "name": "",
          "type": "tuple"
        }
      ],
      "stateMutability": "payable",
      "type": "function"
    },
    {
      "inputs": [],
      "name": "owner",
      "outputs": [
        {
          "internalType": "address",
          "name": "",
          "type": "address"
        }
      ],
      "stateMutability": "view",
      "type": "function"
    },
    {
      "inputs": [],
      "name": "renounceOwnership",
      "outputs": [],
      "stateMutability": "nonpayable",
      "type": "function"
    },
    {
      "inputs": [],
      "name": "repayLoan",
      "outputs": [
        {
          "components": [
            {
              "internalType": "enum LoanStatus",
              "name": "status",
              "type": "uint8"
            },
            {
              "internalType": "uint256",
              "name": "amt",
              "type": "uint256"
            },
            {
              "internalType": "uint256",
              "name": "issued_timestamp",
              "type": "uint256"
            }
          ],
          "internalType": "struct Loan",
          "name": "",
          "type": "tuple"
        }
      ],
      "stateMutability": "nonpayable",
      "type": "function"
    },
    {
      "inputs": [
        {
          "internalType": "address",
          "name": "newOwner",
          "type": "address"
        }
      ],
      "name": "transferOwnership",
      "outputs": [],
      "stateMutability": "nonpayable",
      "type": "function"
    }
  ],
  "bytecode": "0x60806040523480156200001157600080fd5b506040516200155e3803806200155e833981810160405281019062000037919062000182565b620000576200004b6200009f60201b60201c565b620000a760201b60201c565b80600260006101000a81548173ffffffffffffffffffffffffffffffffffffffff021916908373ffffffffffffffffffffffffffffffffffffffff1602179055505062000210565b600033905090565b60008060009054906101000a900473ffffffffffffffffffffffffffffffffffffffff169050816000806101000a81548173ffffffffffffffffffffffffffffffffffffffff021916908373ffffffffffffffffffffffffffffffffffffffff1602179055508173ffffffffffffffffffffffffffffffffffffffff168173ffffffffffffffffffffffffffffffffffffffff167f8be0079c531659141344cd1fd0a4f28419497f9722a3daafe3b4186f6b6457e060405160405180910390a35050565b6000815190506200017c81620001f6565b92915050565b6000602082840312156200019557600080fd5b6000620001a5848285016200016b565b91505092915050565b6000620001bb82620001d6565b9050919050565b6000620001cf82620001ae565b9050919050565b600073ffffffffffffffffffffffffffffffffffffffff82169050919050565b6200020181620001c2565b81146200020d57600080fd5b50565b61133e80620002206000396000f3fe6080604052600436106100595760003560e01c80635c0df55b1461005c578063715018a61461007a5780638da5cb5b14610091578063e8a7da8e146100bc578063f2fde38b146100f9578063f966ade7146101225761005a565b5b005b61006461014d565b60405161007191906110e5565b60405180910390f35b34801561008657600080fd5b5061008f610632565b005b34801561009d57600080fd5b506100a6610646565b6040516100b39190611001565b60405180910390f35b3480156100c857600080fd5b506100e360048036038101906100de9190610e82565b61066f565b6040516100f091906110e5565b60405180910390f35b34801561010557600080fd5b50610120600480360381019061011b9190610e82565b61080e565b005b34801561012e57600080fd5b50610137610892565b60405161014491906110e5565b60405180910390f35b610155610dff565b6000600481111561018f577f4e487b7100000000000000000000000000000000000000000000000000000000600052602160045260246000fd5b600160003373ffffffffffffffffffffffffffffffffffffffff1673ffffffffffffffffffffffffffffffffffffffff16815260200190815260200160002060000160009054906101000a900460ff166004811115610217577f4e487b7100000000000000000000000000000000000000000000000000000000600052602160045260246000fd5b14610257576040517f08c379a000000000000000000000000000000000000000000000000000000000815260040161024e906110c5565b60405180910390fd5b60405180606001604052806001600481111561029c577f4e487b7100000000000000000000000000000000000000000000000000000000600052602160045260246000fd5b815260200134815260200142815250600160003373ffffffffffffffffffffffffffffffffffffffff1673ffffffffffffffffffffffffffffffffffffffff16815260200190815260200160002060008201518160000160006101000a81548160ff0219169083600481111561033b577f4e487b7100000000000000000000000000000000000000000000000000000000600052602160045260246000fd5b02179055506020820151816001015560408201518160020155905050600260009054906101000a900473ffffffffffffffffffffffffffffffffffffffff1673ffffffffffffffffffffffffffffffffffffffff1663095ea7b333346040518363ffffffff1660e01b81526004016103b492919061101c565b602060405180830381600087803b1580156103ce57600080fd5b505af11580156103e2573d6000803e3d6000fd5b505050506040513d601f19601f820116820180604052508101906104069190610eab565b50600260009054906101000a900473ffffffffffffffffffffffffffffffffffffffff1673ffffffffffffffffffffffffffffffffffffffff1663a9059cbb33346040518363ffffffff1660e01b815260040161046492919061101c565b602060405180830381600087803b15801561047e57600080fd5b505af1158015610492573d6000803e3d6000fd5b505050506040513d601f19601f820116820180604052508101906104b69190610eab565b506002600160003373ffffffffffffffffffffffffffffffffffffffff1673ffffffffffffffffffffffffffffffffffffffff16815260200190815260200160002060000160006101000a81548160ff02191690836004811115610543577f4e487b7100000000000000000000000000000000000000000000000000000000600052602160045260246000fd5b0217905550600160003373ffffffffffffffffffffffffffffffffffffffff1673ffffffffffffffffffffffffffffffffffffffff1681526020019081526020016000206040518060600160405290816000820160009054906101000a900460ff1660048111156105dd577f4e487b7100000000000000000000000000000000000000000000000000000000600052602160045260246000fd5b6004811115610615577f4e487b7100000000000000000000000000000000000000000000000000000000600052602160045260246000fd5b815260200160018201548152602001600282015481525050905090565b61063a610cb5565b6106446000610d33565b565b60008060009054906101000a900473ffffffffffffffffffffffffffffffffffffffff16905090565b610677610dff565b8173ffffffffffffffffffffffffffffffffffffffff163373ffffffffffffffffffffffffffffffffffffffff1614806106e357506106b4610646565b73ffffffffffffffffffffffffffffffffffffffff163373ffffffffffffffffffffffffffffffffffffffff16145b610722576040517f08c379a0000000000000000000000000000000000000000000000000000000008152600401610719906110a5565b60405180910390fd5b600160008373ffffffffffffffffffffffffffffffffffffffff1673ffffffffffffffffffffffffffffffffffffffff1681526020019081526020016000206040518060600160405290816000820160009054906101000a900460ff1660048111156107b7577f4e487b7100000000000000000000000000000000000000000000000000000000600052602160045260246000fd5b60048111156107ef577f4e487b7100000000000000000000000000000000000000000000000000000000600052602160045260246000fd5b8152602001600182015481526020016002820154815250509050919050565b610816610cb5565b600073ffffffffffffffffffffffffffffffffffffffff168173ffffffffffffffffffffffffffffffffffffffff161415610886576040517f08c379a000000000000000000000000000000000000000000000000000000000815260040161087d90611045565b60405180910390fd5b61088f81610d33565b50565b61089a610dff565b600260048111156108d4577f4e487b7100000000000000000000000000000000000000000000000000000000600052602160045260246000fd5b600160003373ffffffffffffffffffffffffffffffffffffffff1673ffffffffffffffffffffffffffffffffffffffff16815260200190815260200160002060000160009054906101000a900460ff16600481111561095c577f4e487b7100000000000000000000000000000000000000000000000000000000600052602160045260246000fd5b1461099c576040517f08c379a000000000000000000000000000000000000000000000000000000000815260040161099390611065565b60405180910390fd5b6000600160003373ffffffffffffffffffffffffffffffffffffffff1673ffffffffffffffffffffffffffffffffffffffff1681526020019081526020016000206040518060600160405290816000820160009054906101000a900460ff166004811115610a33577f4e487b7100000000000000000000000000000000000000000000000000000000600052602160045260246000fd5b6004811115610a6b577f4e487b7100000000000000000000000000000000000000000000000000000000600052602160045260246000fd5b8152602001600182015481526020016002820154815250509050600260009054906101000a900473ffffffffffffffffffffffffffffffffffffffff1673ffffffffffffffffffffffffffffffffffffffff1663095ea7b33083602001516040518363ffffffff1660e01b8152600401610ae692919061101c565b602060405180830381600087803b158015610b0057600080fd5b505af1158015610b14573d6000803e3d6000fd5b505050506040513d601f19601f82011682018060405250810190610b389190610eab565b506003600160003373ffffffffffffffffffffffffffffffffffffffff1673ffffffffffffffffffffffffffffffffffffffff16815260200190815260200160002060000160006101000a81548160ff02191690836004811115610bc5577f4e487b7100000000000000000000000000000000000000000000000000000000600052602160045260246000fd5b0217905550600160003373ffffffffffffffffffffffffffffffffffffffff1673ffffffffffffffffffffffffffffffffffffffff1681526020019081526020016000206040518060600160405290816000820160009054906101000a900460ff166004811115610c5f577f4e487b7100000000000000000000000000000000000000000000000000000000600052602160045260246000fd5b6004811115610c97577f4e487b7100000000000000000000000000000000000000000000000000000000600052602160045260246000fd5b81526020016001820154815260200160028201548152505091505090565b610cbd610df7565b73ffffffffffffffffffffffffffffffffffffffff16610cdb610646565b73ffffffffffffffffffffffffffffffffffffffff1614610d31576040517f08c379a0000000000000000000000000000000000000000000000000000000008152600401610d2890611085565b60405180910390fd5b565b60008060009054906101000a900473ffffffffffffffffffffffffffffffffffffffff169050816000806101000a81548173ffffffffffffffffffffffffffffffffffffffff021916908373ffffffffffffffffffffffffffffffffffffffff1602179055508173ffffffffffffffffffffffffffffffffffffffff168173ffffffffffffffffffffffffffffffffffffffff167f8be0079c531659141344cd1fd0a4f28419497f9722a3daafe3b4186f6b6457e060405160405180910390a35050565b600033905090565b604051806060016040528060006004811115610e44577f4e487b7100000000000000000000000000000000000000000000000000000000600052602160045260246000fd5b815260200160008152602001600081525090565b600081359050610e67816112da565b92915050565b600081519050610e7c816112f1565b92915050565b600060208284031215610e9457600080fd5b6000610ea284828501610e58565b91505092915050565b600060208284031215610ebd57600080fd5b6000610ecb84828501610e6d565b91505092915050565b610edd81611111565b82525050565b610eec8161116c565b82525050565b6000610eff602683611100565b9150610f0a826111ad565b604082019050919050565b6000610f22600e83611100565b9150610f2d826111fc565b602082019050919050565b6000610f45602083611100565b9150610f5082611225565b602082019050919050565b6000610f68602683611100565b9150610f738261124e565b604082019050919050565b6000610f8b601783611100565b9150610f968261129d565b602082019050919050565b606082016000820151610fb76000850182610ee3565b506020820151610fca6020850182610fe3565b506040820151610fdd6040850182610fe3565b50505050565b610fec81611162565b82525050565b610ffb81611162565b82525050565b60006020820190506110166000830184610ed4565b92915050565b60006040820190506110316000830185610ed4565b61103e6020830184610ff2565b9392505050565b6000602082019050818103600083015261105e81610ef2565b9050919050565b6000602082019050818103600083015261107e81610f15565b9050919050565b6000602082019050818103600083015261109e81610f38565b9050919050565b600060208201905081810360008301526110be81610f5b565b9050919050565b600060208201905081810360008301526110de81610f7e565b9050919050565b60006060820190506110fa6000830184610fa1565b92915050565b600082825260208201905092915050565b600061111c82611142565b9050919050565b60008115159050919050565b600081905061113d826112c6565b919050565b600073ffffffffffffffffffffffffffffffffffffffff82169050919050565b6000819050919050565b60006111778261112f565b9050919050565b7f4e487b7100000000000000000000000000000000000000000000000000000000600052602160045260246000fd5b7f4f776e61626c653a206e6577206f776e657220697320746865207a65726f206160008201527f6464726573730000000000000000000000000000000000000000000000000000602082015250565b7f6e6f206c6f616e2074616b656e20000000000000000000000000000000000000600082015250565b7f4f776e61626c653a2063616c6c6572206973206e6f7420746865206f776e6572600082015250565b7f206f6e6c79206f776e657220616e64206973737565722063616e20736565206460008201527f657461696c730000000000000000000000000000000000000000000000000000602082015250565b7f746865726520697320616c72656164792061206c6f616e000000000000000000600082015250565b600581106112d7576112d661117e565b5b50565b6112e381611111565b81146112ee57600080fd5b50565b6112fa81611123565b811461130557600080fd5b5056fea2646970667358221220dc855dbd660cfe180b259f3156e70ef45a57507c568d5dbb9d0a55d1c351771c64736f6c63430008040033",
  "linkReferences": {},
  "deployedLinkReferences": {}
}