{
  "_format": "hh-sol-artifact-1",
  "contractName": "LoanManager",
  "sourceName": "contracts/LoanManager.sol",
  "abi": [
    {
      "inputs": [
        {
          "internalType": "contract IERC20",
          "name": "token",
          "type": "address"
        }
      ],
      "stateMutability": "nonpayable",
      "type": "constructor"
    },
    {
      "anonymous": false,
      "inputs": [
        {
          "indexed": true,
          "internalType": "address",
          "name": "previousOwner",
          "type": "address"
        },
        {
          "indexed": true,
          "internalType": "address",
          "name": "newOwner",
          "type": "address"
        }
      ],
      "name": "OwnershipTransferred",
      "type": "event"
    },
    {
      "stateMutability": "payable",
      "type": "fallback"
    },
    {
      "inputs": [
        {
          "internalType": "address",
          "name": "_user",
          "type": "address"
        }
      ],
      "name": "getLoanDetails",
      "outputs": [
        {
          "components": [
            {
              "internalType": "enum LoanStatus",
              "name": "status",
              "type": "uint8"
            },
            {
              "internalType": "uint256",
              "name": "amt",
              "type": "uint256"
            },
            {
              "internalType": "uint256",
              "name": "issued_timestamp",
              "type": "uint256"
            }
          ],
          "internalType": "struct Loan",
          "name": "",
          "type": "tuple"
        }
      ],
      "stateMutability": "view",
      "type": "function"
    },
    {
      "inputs": [],
      "name": "issueLoan",
      "outputs": [
        {
          "components": [
            {
              "internalType": "enum LoanStatus",
              "name": "status",
              "type": "uint8"
            },
            {
              "internalType": "uint256",
              "name": "amt",
              "type": "uint256"
            },
            {
              "internalType": "uint256",
              "name": "issued_timestamp",
              "type": "uint256"
            }
          ],
          "internalType": "struct Loan",
          "name": "",
          "type": "tuple"
        }
      ],
      "stateMutability": "payable",
      "type": "function"
    },
    {
      "inputs": [],
      "name": "owner",
      "outputs": [
        {
          "internalType": "address",
          "name": "",
          "type": "address"
        }
      ],
      "stateMutability": "view",
      "type": "function"
    },
    {
      "inputs": [],
      "name": "renounceOwnership",
      "outputs": [],
      "stateMutability": "nonpayable",
      "type": "function"
    },
    {
      "inputs": [],
      "name": "repayLoan",
      "outputs": [
        {
          "components": [
            {
              "internalType": "enum LoanStatus",
              "name": "status",
              "type": "uint8"
            },
            {
              "internalType": "uint256",
              "name": "amt",
              "type": "uint256"
            },
            {
              "internalType": "uint256",
              "name": "issued_timestamp",
              "type": "uint256"
            }
          ],
          "internalType": "struct Loan",
          "name": "",
          "type": "tuple"
        }
      ],
      "stateMutability": "nonpayable",
      "type": "function"
    },
    {
      "inputs": [
        {
          "internalType": "address",
          "name": "newOwner",
          "type": "address"
        }
      ],
      "name": "transferOwnership",
      "outputs": [],
      "stateMutability": "nonpayable",
      "type": "function"
    }
  ],
  "bytecode": "0x60806040523480156200001157600080fd5b50604051620014ae380380620014ae833981810160405281019062000037919062000182565b620000576200004b6200009f60201b60201c565b620000a760201b60201c565b80600260006101000a81548173ffffffffffffffffffffffffffffffffffffffff021916908373ffffffffffffffffffffffffffffffffffffffff1602179055505062000210565b600033905090565b60008060009054906101000a900473ffffffffffffffffffffffffffffffffffffffff169050816000806101000a81548173ffffffffffffffffffffffffffffffffffffffff021916908373ffffffffffffffffffffffffffffffffffffffff1602179055508173ffffffffffffffffffffffffffffffffffffffff168173ffffffffffffffffffffffffffffffffffffffff167f8be0079c531659141344cd1fd0a4f28419497f9722a3daafe3b4186f6b6457e060405160405180910390a35050565b6000815190506200017c81620001f6565b92915050565b6000602082840312156200019557600080fd5b6000620001a5848285016200016b565b91505092915050565b6000620001bb82620001d6565b9050919050565b6000620001cf82620001ae565b9050919050565b600073ffffffffffffffffffffffffffffffffffffffff82169050919050565b6200020181620001c2565b81146200020d57600080fd5b50565b61128e80620002206000396000f3fe6080604052600436106100595760003560e01c80635c0df55b1461005c578063715018a61461007a5780638da5cb5b14610091578063e8a7da8e146100bc578063f2fde38b146100f9578063f966ade7146101225761005a565b5b005b61006461014d565b6040516100719190611035565b60405180910390f35b34801561008657600080fd5b5061008f610582565b005b34801561009d57600080fd5b506100a6610596565b6040516100b39190610f51565b60405180910390f35b3480156100c857600080fd5b506100e360048036038101906100de9190610dd2565b6105bf565b6040516100f09190611035565b60405180910390f35b34801561010557600080fd5b50610120600480360381019061011b9190610dd2565b61075e565b005b34801561012e57600080fd5b506101376107e2565b6040516101449190611035565b60405180910390f35b610155610d4f565b6000600481111561018f577f4e487b7100000000000000000000000000000000000000000000000000000000600052602160045260246000fd5b600160003373ffffffffffffffffffffffffffffffffffffffff1673ffffffffffffffffffffffffffffffffffffffff16815260200190815260200160002060000160009054906101000a900460ff166004811115610217577f4e487b7100000000000000000000000000000000000000000000000000000000600052602160045260246000fd5b14610257576040517f08c379a000000000000000000000000000000000000000000000000000000000815260040161024e90611015565b60405180910390fd5b60405180606001604052806001600481111561029c577f4e487b7100000000000000000000000000000000000000000000000000000000600052602160045260246000fd5b815260200134815260200142815250600160003373ffffffffffffffffffffffffffffffffffffffff1673ffffffffffffffffffffffffffffffffffffffff16815260200190815260200160002060008201518160000160006101000a81548160ff0219169083600481111561033b577f4e487b7100000000000000000000000000000000000000000000000000000000600052602160045260246000fd5b02179055506020820151816001015560408201518160020155905050600260009054906101000a900473ffffffffffffffffffffffffffffffffffffffff1673ffffffffffffffffffffffffffffffffffffffff1663a9059cbb33346040518363ffffffff1660e01b81526004016103b4929190610f6c565b602060405180830381600087803b1580156103ce57600080fd5b505af11580156103e2573d6000803e3d6000fd5b505050506040513d601f19601f820116820180604052508101906104069190610dfb565b506002600160003373ffffffffffffffffffffffffffffffffffffffff1673ffffffffffffffffffffffffffffffffffffffff16815260200190815260200160002060000160006101000a81548160ff02191690836004811115610493577f4e487b7100000000000000000000000000000000000000000000000000000000600052602160045260246000fd5b0217905550600160003373ffffffffffffffffffffffffffffffffffffffff1673ffffffffffffffffffffffffffffffffffffffff1681526020019081526020016000206040518060600160405290816000820160009054906101000a900460ff16600481111561052d577f4e487b7100000000000000000000000000000000000000000000000000000000600052602160045260246000fd5b6004811115610565577f4e487b7100000000000000000000000000000000000000000000000000000000600052602160045260246000fd5b815260200160018201548152602001600282015481525050905090565b61058a610c05565b6105946000610c83565b565b60008060009054906101000a900473ffffffffffffffffffffffffffffffffffffffff16905090565b6105c7610d4f565b8173ffffffffffffffffffffffffffffffffffffffff163373ffffffffffffffffffffffffffffffffffffffff1614806106335750610604610596565b73ffffffffffffffffffffffffffffffffffffffff163373ffffffffffffffffffffffffffffffffffffffff16145b610672576040517f08c379a000000000000000000000000000000000000000000000000000000000815260040161066990610ff5565b60405180910390fd5b600160008373ffffffffffffffffffffffffffffffffffffffff1673ffffffffffffffffffffffffffffffffffffffff1681526020019081526020016000206040518060600160405290816000820160009054906101000a900460ff166004811115610707577f4e487b7100000000000000000000000000000000000000000000000000000000600052602160045260246000fd5b600481111561073f577f4e487b7100000000000000000000000000000000000000000000000000000000600052602160045260246000fd5b8152602001600182015481526020016002820154815250509050919050565b610766610c05565b600073ffffffffffffffffffffffffffffffffffffffff168173ffffffffffffffffffffffffffffffffffffffff1614156107d6576040517f08c379a00000000000000000000000000000000000000000000000000000000081526004016107cd90610f95565b60405180910390fd5b6107df81610c83565b50565b6107ea610d4f565b60026004811115610824577f4e487b7100000000000000000000000000000000000000000000000000000000600052602160045260246000fd5b600160003373ffffffffffffffffffffffffffffffffffffffff1673ffffffffffffffffffffffffffffffffffffffff16815260200190815260200160002060000160009054906101000a900460ff1660048111156108ac577f4e487b7100000000000000000000000000000000000000000000000000000000600052602160045260246000fd5b146108ec576040517f08c379a00000000000000000000000000000000000000000000000000000000081526004016108e390610fb5565b60405180910390fd5b6000600160003373ffffffffffffffffffffffffffffffffffffffff1673ffffffffffffffffffffffffffffffffffffffff1681526020019081526020016000206040518060600160405290816000820160009054906101000a900460ff166004811115610983577f4e487b7100000000000000000000000000000000000000000000000000000000600052602160045260246000fd5b60048111156109bb577f4e487b7100000000000000000000000000000000000000000000000000000000600052602160045260246000fd5b8152602001600182015481526020016002820154815250509050600260009054906101000a900473ffffffffffffffffffffffffffffffffffffffff1673ffffffffffffffffffffffffffffffffffffffff1663095ea7b33083602001516040518363ffffffff1660e01b8152600401610a36929190610f6c565b602060405180830381600087803b158015610a5057600080fd5b505af1158015610a64573d6000803e3d6000fd5b505050506040513d601f19601f82011682018060405250810190610a889190610dfb565b506003600160003373ffffffffffffffffffffffffffffffffffffffff1673ffffffffffffffffffffffffffffffffffffffff16815260200190815260200160002060000160006101000a81548160ff02191690836004811115610b15577f4e487b7100000000000000000000000000000000000000000000000000000000600052602160045260246000fd5b0217905550600160003373ffffffffffffffffffffffffffffffffffffffff1673ffffffffffffffffffffffffffffffffffffffff1681526020019081526020016000206040518060600160405290816000820160009054906101000a900460ff166004811115610baf577f4e487b7100000000000000000000000000000000000000000000000000000000600052602160045260246000fd5b6004811115610be7577f4e487b7100000000000000000000000000000000000000000000000000000000600052602160045260246000fd5b81526020016001820154815260200160028201548152505091505090565b610c0d610d47565b73ffffffffffffffffffffffffffffffffffffffff16610c2b610596565b73ffffffffffffffffffffffffffffffffffffffff1614610c81576040517f08c379a0000000000000000000000000000000000000000000000000000000008152600401610c7890610fd5565b60405180910390fd5b565b60008060009054906101000a900473ffffffffffffffffffffffffffffffffffffffff169050816000806101000a81548173ffffffffffffffffffffffffffffffffffffffff021916908373ffffffffffffffffffffffffffffffffffffffff1602179055508173ffffffffffffffffffffffffffffffffffffffff168173ffffffffffffffffffffffffffffffffffffffff167f8be0079c531659141344cd1fd0a4f28419497f9722a3daafe3b4186f6b6457e060405160405180910390a35050565b600033905090565b604051806060016040528060006004811115610d94577f4e487b7100000000000000000000000000000000000000000000000000000000600052602160045260246000fd5b815260200160008152602001600081525090565b600081359050610db78161122a565b92915050565b600081519050610dcc81611241565b92915050565b600060208284031215610de457600080fd5b6000610df284828501610da8565b91505092915050565b600060208284031215610e0d57600080fd5b6000610e1b84828501610dbd565b91505092915050565b610e2d81611061565b82525050565b610e3c816110bc565b82525050565b6000610e4f602683611050565b9150610e5a826110fd565b604082019050919050565b6000610e72600e83611050565b9150610e7d8261114c565b602082019050919050565b6000610e95602083611050565b9150610ea082611175565b602082019050919050565b6000610eb8602683611050565b9150610ec38261119e565b604082019050919050565b6000610edb601783611050565b9150610ee6826111ed565b602082019050919050565b606082016000820151610f076000850182610e33565b506020820151610f1a6020850182610f33565b506040820151610f2d6040850182610f33565b50505050565b610f3c816110b2565b82525050565b610f4b816110b2565b82525050565b6000602082019050610f666000830184610e24565b92915050565b6000604082019050610f816000830185610e24565b610f8e6020830184610f42565b9392505050565b60006020820190508181036000830152610fae81610e42565b9050919050565b60006020820190508181036000830152610fce81610e65565b9050919050565b60006020820190508181036000830152610fee81610e88565b9050919050565b6000602082019050818103600083015261100e81610eab565b9050919050565b6000602082019050818103600083015261102e81610ece565b9050919050565b600060608201905061104a6000830184610ef1565b92915050565b600082825260208201905092915050565b600061106c82611092565b9050919050565b60008115159050919050565b600081905061108d82611216565b919050565b600073ffffffffffffffffffffffffffffffffffffffff82169050919050565b6000819050919050565b60006110c78261107f565b9050919050565b7f4e487b7100000000000000000000000000000000000000000000000000000000600052602160045260246000fd5b7f4f776e61626c653a206e6577206f776e657220697320746865207a65726f206160008201527f6464726573730000000000000000000000000000000000000000000000000000602082015250565b7f6e6f206c6f616e2074616b656e20000000000000000000000000000000000000600082015250565b7f4f776e61626c653a2063616c6c6572206973206e6f7420746865206f776e6572600082015250565b7f206f6e6c79206f776e657220616e64206973737565722063616e20736565206460008201527f657461696c730000000000000000000000000000000000000000000000000000602082015250565b7f746865726520697320616c72656164792061206c6f616e000000000000000000600082015250565b60058110611227576112266110ce565b5b50565b61123381611061565b811461123e57600080fd5b50565b61124a81611073565b811461125557600080fd5b5056fea2646970667358221220ae429e45b6c16356276dedd3d310a62b748def84fb06b2bd41906bcbf2b65ffb64736f6c63430008040033",
  "linkReferences": {},
  "deployedLinkReferences": {}
}